{
  "_format": "hh-sol-artifact-1",
  "contractName": "Sbtn",
  "sourceName": "contracts/Sbtn.sol",
  "abi": [
    {
      "inputs": [],
      "stateMutability": "nonpayable",
      "type": "constructor"
    },
    {
      "anonymous": false,
      "inputs": [
        {
          "indexed": true,
          "internalType": "address",
          "name": "owner",
          "type": "address"
        },
        {
          "indexed": true,
          "internalType": "address",
          "name": "approved",
          "type": "address"
        },
        {
          "indexed": true,
          "internalType": "uint256",
          "name": "tokenId",
          "type": "uint256"
        }
      ],
      "name": "Approval",
      "type": "event"
    },
    {
      "anonymous": false,
      "inputs": [
        {
          "indexed": true,
          "internalType": "address",
          "name": "owner",
          "type": "address"
        },
        {
          "indexed": true,
          "internalType": "address",
          "name": "operator",
          "type": "address"
        },
        {
          "indexed": false,
          "internalType": "bool",
          "name": "approved",
          "type": "bool"
        }
      ],
      "name": "ApprovalForAll",
      "type": "event"
    },
    {
      "anonymous": false,
      "inputs": [
        {
          "indexed": true,
          "internalType": "address",
          "name": "previousOwner",
          "type": "address"
        },
        {
          "indexed": true,
          "internalType": "address",
          "name": "newOwner",
          "type": "address"
        }
      ],
      "name": "OwnershipTransferred",
      "type": "event"
    },
    {
      "anonymous": false,
      "inputs": [
        {
          "indexed": true,
          "internalType": "address",
          "name": "from",
          "type": "address"
        },
        {
          "indexed": true,
          "internalType": "address",
          "name": "to",
          "type": "address"
        },
        {
          "indexed": true,
          "internalType": "uint256",
          "name": "tokenId",
          "type": "uint256"
        }
      ],
      "name": "Transfer",
      "type": "event"
    },
    {
      "inputs": [],
      "name": "addCollection",
      "outputs": [],
      "stateMutability": "nonpayable",
      "type": "function"
    },
    {
      "inputs": [
        {
          "internalType": "uint256",
          "name": "",
          "type": "uint256"
        }
      ],
      "name": "allowedCollections",
      "outputs": [
        {
          "internalType": "address",
          "name": "",
          "type": "address"
        }
      ],
      "stateMutability": "view",
      "type": "function"
    },
    {
      "inputs": [
        {
          "internalType": "address",
          "name": "to",
          "type": "address"
        },
        {
          "internalType": "uint256",
          "name": "tokenId",
          "type": "uint256"
        }
      ],
      "name": "approve",
      "outputs": [],
      "stateMutability": "nonpayable",
      "type": "function"
    },
    {
      "inputs": [
        {
          "internalType": "address",
          "name": "owner",
          "type": "address"
        }
      ],
      "name": "balanceOf",
      "outputs": [
        {
          "internalType": "uint256",
          "name": "",
          "type": "uint256"
        }
      ],
      "stateMutability": "view",
      "type": "function"
    },
    {
      "inputs": [
        {
          "internalType": "uint256",
          "name": "tokenId",
          "type": "uint256"
        }
      ],
      "name": "getApproved",
      "outputs": [
        {
          "internalType": "address",
          "name": "",
          "type": "address"
        }
      ],
      "stateMutability": "view",
      "type": "function"
    },
    {
      "inputs": [
        {
          "internalType": "address",
          "name": "owner",
          "type": "address"
        },
        {
          "internalType": "address",
          "name": "operator",
          "type": "address"
        }
      ],
      "name": "isApprovedForAll",
      "outputs": [
        {
          "internalType": "bool",
          "name": "",
          "type": "bool"
        }
      ],
      "stateMutability": "view",
      "type": "function"
    },
    {
      "inputs": [],
      "name": "name",
      "outputs": [
        {
          "internalType": "string",
          "name": "",
          "type": "string"
        }
      ],
      "stateMutability": "view",
      "type": "function"
    },
    {
      "inputs": [
        {
          "internalType": "address",
          "name": "_collectionAddress",
          "type": "address"
        },
        {
          "internalType": "uint256",
          "name": "_nftItem",
          "type": "uint256"
        },
        {
          "internalType": "uint256",
          "name": "_tokenId",
          "type": "uint256"
        }
      ],
      "name": "newOwnerClaim",
      "outputs": [],
      "stateMutability": "nonpayable",
      "type": "function"
    },
    {
      "inputs": [
        {
          "internalType": "address",
          "name": "",
          "type": "address"
        },
        {
          "internalType": "uint256",
          "name": "",
          "type": "uint256"
        }
      ],
      "name": "nftGroup",
      "outputs": [
        {
          "internalType": "address",
          "name": "",
          "type": "address"
        }
      ],
      "stateMutability": "view",
      "type": "function"
    },
    {
      "inputs": [],
      "name": "owner",
      "outputs": [
        {
          "internalType": "address",
          "name": "",
          "type": "address"
        }
      ],
      "stateMutability": "view",
      "type": "function"
    },
    {
      "inputs": [
        {
          "internalType": "uint256",
          "name": "tokenId",
          "type": "uint256"
        }
      ],
      "name": "ownerOf",
      "outputs": [
        {
          "internalType": "address",
          "name": "",
          "type": "address"
        }
      ],
      "stateMutability": "view",
      "type": "function"
    },
    {
      "inputs": [],
      "name": "renounceOwnership",
      "outputs": [],
      "stateMutability": "nonpayable",
      "type": "function"
    },
    {
      "inputs": [
        {
          "internalType": "string",
          "name": "uri",
          "type": "string"
        },
        {
          "internalType": "address",
          "name": "_collectionAddress",
          "type": "address"
        },
        {
          "internalType": "uint256",
          "name": "_nftItem",
          "type": "uint256"
        }
      ],
      "name": "safeMint",
      "outputs": [],
      "stateMutability": "nonpayable",
      "type": "function"
    },
    {
      "inputs": [
        {
          "internalType": "address",
          "name": "from",
          "type": "address"
        },
        {
          "internalType": "address",
          "name": "to",
          "type": "address"
        },
        {
          "internalType": "uint256",
          "name": "tokenId",
          "type": "uint256"
        }
      ],
      "name": "safeTransferFrom",
      "outputs": [],
      "stateMutability": "nonpayable",
      "type": "function"
    },
    {
      "inputs": [
        {
          "internalType": "address",
          "name": "from",
          "type": "address"
        },
        {
          "internalType": "address",
          "name": "to",
          "type": "address"
        },
        {
          "internalType": "uint256",
          "name": "tokenId",
          "type": "uint256"
        },
        {
          "internalType": "bytes",
          "name": "data",
          "type": "bytes"
        }
      ],
      "name": "safeTransferFrom",
      "outputs": [],
      "stateMutability": "nonpayable",
      "type": "function"
    },
    {
      "inputs": [
        {
          "internalType": "address",
          "name": "operator",
          "type": "address"
        },
        {
          "internalType": "bool",
          "name": "approved",
          "type": "bool"
        }
      ],
      "name": "setApprovalForAll",
      "outputs": [],
      "stateMutability": "nonpayable",
      "type": "function"
    },
    {
      "inputs": [
        {
          "internalType": "bytes4",
          "name": "interfaceId",
          "type": "bytes4"
        }
      ],
      "name": "supportsInterface",
      "outputs": [
        {
          "internalType": "bool",
          "name": "",
          "type": "bool"
        }
      ],
      "stateMutability": "view",
      "type": "function"
    },
    {
      "inputs": [],
      "name": "symbol",
      "outputs": [
        {
          "internalType": "string",
          "name": "",
          "type": "string"
        }
      ],
      "stateMutability": "view",
      "type": "function"
    },
    {
      "inputs": [
        {
          "internalType": "uint256",
          "name": "index",
          "type": "uint256"
        }
      ],
      "name": "tokenByIndex",
      "outputs": [
        {
          "internalType": "uint256",
          "name": "",
          "type": "uint256"
        }
      ],
      "stateMutability": "view",
      "type": "function"
    },
    {
      "inputs": [
        {
          "internalType": "address",
          "name": "owner",
          "type": "address"
        },
        {
          "internalType": "uint256",
          "name": "index",
          "type": "uint256"
        }
      ],
      "name": "tokenOfOwnerByIndex",
      "outputs": [
        {
          "internalType": "uint256",
          "name": "",
          "type": "uint256"
        }
      ],
      "stateMutability": "view",
      "type": "function"
    },
    {
      "inputs": [
        {
          "internalType": "uint256",
          "name": "tokenId",
          "type": "uint256"
        }
      ],
      "name": "tokenURI",
      "outputs": [
        {
          "internalType": "string",
          "name": "",
          "type": "string"
        }
      ],
      "stateMutability": "view",
      "type": "function"
    },
    {
      "inputs": [],
      "name": "totalSupply",
      "outputs": [
        {
          "internalType": "uint256",
          "name": "",
          "type": "uint256"
        }
      ],
      "stateMutability": "view",
      "type": "function"
    },
    {
      "inputs": [
        {
          "internalType": "address",
          "name": "from",
          "type": "address"
        },
        {
          "internalType": "address",
          "name": "to",
          "type": "address"
        },
        {
          "internalType": "uint256",
          "name": "tokenId",
          "type": "uint256"
        }
      ],
      "name": "transferFrom",
      "outputs": [],
      "stateMutability": "nonpayable",
      "type": "function"
    },
    {
      "inputs": [
        {
          "internalType": "address",
          "name": "newOwner",
          "type": "address"
        }
      ],
      "name": "transferOwnership",
      "outputs": [],
      "stateMutability": "nonpayable",
      "type": "function"
    }
  ],
  "bytecode": "0x60806040526000600f60006101000a81548160ff0219169083151502179055503480156200002c57600080fd5b506040518060400160405280600481526020017f5342546e000000000000000000000000000000000000000000000000000000008152506040518060400160405280600481526020017f5342544e000000000000000000000000000000000000000000000000000000008152508160009080519060200190620000b1929190620001c1565b508060019080519060200190620000ca929190620001c1565b505050620000ed620000e1620000f360201b60201c565b620000fb60201b60201c565b620002d6565b600033905090565b6000600b60009054906101000a900473ffffffffffffffffffffffffffffffffffffffff16905081600b60006101000a81548173ffffffffffffffffffffffffffffffffffffffff021916908373ffffffffffffffffffffffffffffffffffffffff1602179055508173ffffffffffffffffffffffffffffffffffffffff168173ffffffffffffffffffffffffffffffffffffffff167f8be0079c531659141344cd1fd0a4f28419497f9722a3daafe3b4186f6b6457e060405160405180910390a35050565b828054620001cf9062000271565b90600052602060002090601f016020900481019282620001f357600085556200023f565b82601f106200020e57805160ff19168380011785556200023f565b828001600101855582156200023f579182015b828111156200023e57825182559160200191906001019062000221565b5b5090506200024e919062000252565b5090565b5b808211156200026d57600081600090555060010162000253565b5090565b600060028204905060018216806200028a57607f821691505b60208210811415620002a157620002a0620002a7565b5b50919050565b7f4e487b7100000000000000000000000000000000000000000000000000000000600052602260045260246000fd5b61376c80620002e66000396000f3fe608060405234801561001057600080fd5b50600436106101575760003560e01c80636352211e116100c3578063a22cb4651161007c578063a22cb465146103ea578063b88d4fde14610406578063c87b56dd14610422578063c9d08ac914610452578063e985e9c51461045c578063f2fde38b1461048c57610157565b80636352211e1461032857806370a0823114610358578063715018a6146103885780637a1c9fc3146103925780638da5cb5b146103ae57806395d89b41146103cc57610157565b806318160ddd1161011557806318160ddd1461024257806323b872dd146102605780632f745c591461027c57806342842e0e146102ac5780634ca38d4a146102c85780634f6ccce7146102f857610157565b8062e585c21461015c57806301ffc9a71461017857806306fdde03146101a8578063081812fc146101c6578063095ea7b3146101f65780630e23007b14610212575b600080fd5b61017660048036038101906101719190612752565b6104a8565b005b610192600480360381019061018d9190612700565b61066b565b60405161019f9190612bb3565b60405180910390f35b6101b061067d565b6040516101bd9190612bce565b60405180910390f35b6101e060048036038101906101db91906127b9565b61070f565b6040516101ed9190612b4c565b60405180910390f35b610210600480360381019061020b9190612675565b610755565b005b61022c60048036038101906102279190612675565b61086d565b6040516102399190612b4c565b60405180910390f35b61024a6108af565b6040516102579190612e30565b60405180910390f35b61027a6004803603810190610275919061256f565b6108bc565b005b61029660048036038101906102919190612675565b61091c565b6040516102a39190612e30565b60405180910390f35b6102c660048036038101906102c1919061256f565b6109c1565b005b6102e260048036038101906102dd91906127b9565b6109e1565b6040516102ef9190612b4c565b60405180910390f35b610312600480360381019061030d91906127b9565b610a14565b60405161031f9190612e30565b60405180910390f35b610342600480360381019061033d91906127b9565b610aab565b60405161034f9190612b4c565b60405180910390f35b610372600480360381019061036d91906124e1565b610b5d565b60405161037f9190612e30565b60405180910390f35b610390610c15565b005b6103ac60048036038101906103a791906126b1565b610c29565b005b6103b6610e70565b6040516103c39190612b4c565b60405180910390f35b6103d4610e9a565b6040516103e19190612bce565b60405180910390f35b61040460048036038101906103ff9190612639565b610f2c565b005b610420600480360381019061041b91906125be565b610f42565b005b61043c600480360381019061043791906127b9565b610fa4565b6040516104499190612bce565b60405180910390f35b61045a610fb6565b005b61047660048036038101906104719190612533565b610fc0565b6040516104839190612bb3565b60405180910390f35b6104a660048036038101906104a191906124e1565b611054565b005b600082905060008173ffffffffffffffffffffffffffffffffffffffff16636352211e846040518263ffffffff1660e01b81526004016104e89190612e30565b60206040518083038186803b15801561050057600080fd5b505afa158015610514573d6000803e3d6000fd5b505050506040513d601f19601f82011682018060405250810190610538919061250a565b90503373ffffffffffffffffffffffffffffffffffffffff168173ffffffffffffffffffffffffffffffffffffffff16146105a8576040517f08c379a000000000000000000000000000000000000000000000000000000000815260040161059f90612d90565b60405180910390fd5b80600e60008673ffffffffffffffffffffffffffffffffffffffff1673ffffffffffffffffffffffffffffffffffffffff168152602001908152602001600020600085815260200190815260200160002060006101000a81548173ffffffffffffffffffffffffffffffffffffffff021916908373ffffffffffffffffffffffffffffffffffffffff1602179055506000610643600c6110d8565b905061064f600c6110e6565b61065982826110fc565b610663818761111a565b505050505050565b60006106768261118e565b9050919050565b60606000805461068c90613086565b80601f01602080910402602001604051908101604052809291908181526020018280546106b890613086565b80156107055780601f106106da57610100808354040283529160200191610705565b820191906000526020600020905b8154815290600101906020018083116106e857829003601f168201915b5050505050905090565b600061071a82611208565b6004600083815260200190815260200160002060009054906101000a900473ffffffffffffffffffffffffffffffffffffffff169050919050565b600061076082610aab565b90508073ffffffffffffffffffffffffffffffffffffffff168373ffffffffffffffffffffffffffffffffffffffff1614156107d1576040517f08c379a00000000000000000000000000000000000000000000000000000000081526004016107c890612dd0565b60405180910390fd5b8073ffffffffffffffffffffffffffffffffffffffff166107f0611253565b73ffffffffffffffffffffffffffffffffffffffff16148061081f575061081e81610819611253565b610fc0565b5b61085e576040517f08c379a000000000000000000000000000000000000000000000000000000000815260040161085590612d30565b60405180910390fd5b610868838361125b565b505050565b600e6020528160005260406000206020528060005260406000206000915091509054906101000a900473ffffffffffffffffffffffffffffffffffffffff1681565b6000600980549050905090565b6108cd6108c7611253565b82611314565b61090c576040517f08c379a000000000000000000000000000000000000000000000000000000000815260040161090390612e10565b60405180910390fd5b6109178383836113a9565b505050565b600061092783610b5d565b8210610968576040517f08c379a000000000000000000000000000000000000000000000000000000000815260040161095f90612bf0565b60405180910390fd5b600760008473ffffffffffffffffffffffffffffffffffffffff1673ffffffffffffffffffffffffffffffffffffffff168152602001908152602001600020600083815260200190815260200160002054905092915050565b6109dc83838360405180602001604052806000815250610f42565b505050565b600d6020528060005260406000206000915054906101000a900473ffffffffffffffffffffffffffffffffffffffff1681565b6000610a1e6108af565b8210610a5f576040517f08c379a0000000000000000000000000000000000000000000000000000000008152600401610a5690612df0565b60405180910390fd5b60098281548110610a99577f4e487b7100000000000000000000000000000000000000000000000000000000600052603260045260246000fd5b90600052602060002001549050919050565b6000806002600084815260200190815260200160002060009054906101000a900473ffffffffffffffffffffffffffffffffffffffff169050600073ffffffffffffffffffffffffffffffffffffffff168173ffffffffffffffffffffffffffffffffffffffff161415610b54576040517f08c379a0000000000000000000000000000000000000000000000000000000008152600401610b4b90612db0565b60405180910390fd5b80915050919050565b60008073ffffffffffffffffffffffffffffffffffffffff168273ffffffffffffffffffffffffffffffffffffffff161415610bce576040517f08c379a0000000000000000000000000000000000000000000000000000000008152600401610bc590612cd0565b60405180910390fd5b600360008373ffffffffffffffffffffffffffffffffffffffff1673ffffffffffffffffffffffffffffffffffffffff168152602001908152602001600020549050919050565b610c1d611610565b610c27600061168e565b565b600083905060008173ffffffffffffffffffffffffffffffffffffffff16636352211e856040518263ffffffff1660e01b8152600401610c699190612e30565b60206040518083038186803b158015610c8157600080fd5b505afa158015610c95573d6000803e3d6000fd5b505050506040513d601f19601f82011682018060405250810190610cb9919061250a565b90503373ffffffffffffffffffffffffffffffffffffffff168173ffffffffffffffffffffffffffffffffffffffff1614610d29576040517f08c379a0000000000000000000000000000000000000000000000000000000008152600401610d2090612d90565b60405180910390fd5b6001600f60006101000a81548160ff021916908315150217905550610dbf600e60008773ffffffffffffffffffffffffffffffffffffffff1673ffffffffffffffffffffffffffffffffffffffff168152602001908152602001600020600086815260200190815260200160002060009054906101000a900473ffffffffffffffffffffffffffffffffffffffff1682856113a9565b6000600f60006101000a81548160ff02191690831515021790555080600e60008773ffffffffffffffffffffffffffffffffffffffff1673ffffffffffffffffffffffffffffffffffffffff168152602001908152602001600020600086815260200190815260200160002060006101000a81548173ffffffffffffffffffffffffffffffffffffffff021916908373ffffffffffffffffffffffffffffffffffffffff1602179055505050505050565b6000600b60009054906101000a900473ffffffffffffffffffffffffffffffffffffffff16905090565b606060018054610ea990613086565b80601f0160208091040260200160405190810160405280929190818152602001828054610ed590613086565b8015610f225780601f10610ef757610100808354040283529160200191610f22565b820191906000526020600020905b815481529060010190602001808311610f0557829003601f168201915b5050505050905090565b610f3e610f37611253565b8383611754565b5050565b610f53610f4d611253565b83611314565b610f92576040517f08c379a0000000000000000000000000000000000000000000000000000000008152600401610f8990612e10565b60405180910390fd5b610f9e848484846118c1565b50505050565b6060610faf8261191d565b9050919050565b610fbe611610565b565b6000600560008473ffffffffffffffffffffffffffffffffffffffff1673ffffffffffffffffffffffffffffffffffffffff16815260200190815260200160002060008373ffffffffffffffffffffffffffffffffffffffff1673ffffffffffffffffffffffffffffffffffffffff16815260200190815260200160002060009054906101000a900460ff16905092915050565b61105c611610565b600073ffffffffffffffffffffffffffffffffffffffff168173ffffffffffffffffffffffffffffffffffffffff1614156110cc576040517f08c379a00000000000000000000000000000000000000000000000000000000081526004016110c390612c30565b60405180910390fd5b6110d58161168e565b50565b600081600001549050919050565b6001816000016000828254019250508190555050565b611116828260405180602001604052806000815250611a30565b5050565b61112382611a8b565b611162576040517f08c379a000000000000000000000000000000000000000000000000000000000815260040161115990612cf0565b60405180910390fd5b806006600084815260200190815260200160002090805190602001906111899291906122f0565b505050565b60007f780e9d63000000000000000000000000000000000000000000000000000000007bffffffffffffffffffffffffffffffffffffffffffffffffffffffff1916827bffffffffffffffffffffffffffffffffffffffffffffffffffffffff19161480611201575061120082611af7565b5b9050919050565b61121181611a8b565b611250576040517f08c379a000000000000000000000000000000000000000000000000000000000815260040161124790612db0565b60405180910390fd5b50565b600033905090565b816004600083815260200190815260200160002060006101000a81548173ffffffffffffffffffffffffffffffffffffffff021916908373ffffffffffffffffffffffffffffffffffffffff160217905550808273ffffffffffffffffffffffffffffffffffffffff166112ce83610aab565b73ffffffffffffffffffffffffffffffffffffffff167f8c5be1e5ebec7d5bd14f71427d1e84f3dd0314c0f7b2291e5b200ac8c7c3b92560405160405180910390a45050565b60008061132083610aab565b90508073ffffffffffffffffffffffffffffffffffffffff168473ffffffffffffffffffffffffffffffffffffffff16148061136257506113618185610fc0565b5b806113a057508373ffffffffffffffffffffffffffffffffffffffff166113888461070f565b73ffffffffffffffffffffffffffffffffffffffff16145b91505092915050565b8273ffffffffffffffffffffffffffffffffffffffff166113c982610aab565b73ffffffffffffffffffffffffffffffffffffffff161461141f576040517f08c379a000000000000000000000000000000000000000000000000000000000815260040161141690612c50565b60405180910390fd5b600073ffffffffffffffffffffffffffffffffffffffff168273ffffffffffffffffffffffffffffffffffffffff16141561148f576040517f08c379a000000000000000000000000000000000000000000000000000000000815260040161148690612c90565b60405180910390fd5b61149a838383611bd9565b6114a560008261125b565b6001600360008573ffffffffffffffffffffffffffffffffffffffff1673ffffffffffffffffffffffffffffffffffffffff16815260200190815260200160002060008282546114f59190612f9c565b925050819055506001600360008473ffffffffffffffffffffffffffffffffffffffff1673ffffffffffffffffffffffffffffffffffffffff168152602001908152602001600020600082825461154c9190612f15565b92505081905550816002600083815260200190815260200160002060006101000a81548173ffffffffffffffffffffffffffffffffffffffff021916908373ffffffffffffffffffffffffffffffffffffffff160217905550808273ffffffffffffffffffffffffffffffffffffffff168473ffffffffffffffffffffffffffffffffffffffff167fddf252ad1be2c89b69c2b068fc378daa952ba7f163c4a11628f55a4df523b3ef60405160405180910390a461160b838383611c9b565b505050565b611618611253565b73ffffffffffffffffffffffffffffffffffffffff16611636610e70565b73ffffffffffffffffffffffffffffffffffffffff161461168c576040517f08c379a000000000000000000000000000000000000000000000000000000000815260040161168390612d70565b60405180910390fd5b565b6000600b60009054906101000a900473ffffffffffffffffffffffffffffffffffffffff16905081600b60006101000a81548173ffffffffffffffffffffffffffffffffffffffff021916908373ffffffffffffffffffffffffffffffffffffffff1602179055508173ffffffffffffffffffffffffffffffffffffffff168173ffffffffffffffffffffffffffffffffffffffff167f8be0079c531659141344cd1fd0a4f28419497f9722a3daafe3b4186f6b6457e060405160405180910390a35050565b8173ffffffffffffffffffffffffffffffffffffffff168373ffffffffffffffffffffffffffffffffffffffff1614156117c3576040517f08c379a00000000000000000000000000000000000000000000000000000000081526004016117ba90612cb0565b60405180910390fd5b80600560008573ffffffffffffffffffffffffffffffffffffffff1673ffffffffffffffffffffffffffffffffffffffff16815260200190815260200160002060008473ffffffffffffffffffffffffffffffffffffffff1673ffffffffffffffffffffffffffffffffffffffff16815260200190815260200160002060006101000a81548160ff0219169083151502179055508173ffffffffffffffffffffffffffffffffffffffff168373ffffffffffffffffffffffffffffffffffffffff167f17307eab39ab6107e8899845ad3d59bd9653f200f220920489ca2b5937696c31836040516118b49190612bb3565b60405180910390a3505050565b6118cc8484846113a9565b6118d884848484611ca0565b611917576040517f08c379a000000000000000000000000000000000000000000000000000000000815260040161190e90612c10565b60405180910390fd5b50505050565b606061192882611208565b600060066000848152602001908152602001600020805461194890613086565b80601f016020809104026020016040519081016040528092919081815260200182805461197490613086565b80156119c15780601f10611996576101008083540402835291602001916119c1565b820191906000526020600020905b8154815290600101906020018083116119a457829003601f168201915b5050505050905060006119d2611e37565b90506000815114156119e8578192505050611a2b565b600082511115611a1d578082604051602001611a05929190612b28565b60405160208183030381529060405292505050611a2b565b611a2684611e74565b925050505b919050565b611a3a8383611edc565b611a476000848484611ca0565b611a86576040517f08c379a0000000000000000000000000000000000000000000000000000000008152600401611a7d90612c10565b60405180910390fd5b505050565b60008073ffffffffffffffffffffffffffffffffffffffff166002600084815260200190815260200160002060009054906101000a900473ffffffffffffffffffffffffffffffffffffffff1673ffffffffffffffffffffffffffffffffffffffff1614159050919050565b60007f80ac58cd000000000000000000000000000000000000000000000000000000007bffffffffffffffffffffffffffffffffffffffffffffffffffffffff1916827bffffffffffffffffffffffffffffffffffffffffffffffffffffffff19161480611bc257507f5b5e139f000000000000000000000000000000000000000000000000000000007bffffffffffffffffffffffffffffffffffffffffffffffffffffffff1916827bffffffffffffffffffffffffffffffffffffffffffffffffffffffff1916145b80611bd25750611bd1826120b6565b5b9050919050565b600073ffffffffffffffffffffffffffffffffffffffff168373ffffffffffffffffffffffffffffffffffffffff161480611c405750600073ffffffffffffffffffffffffffffffffffffffff168273ffffffffffffffffffffffffffffffffffffffff16145b80611c575750600f60009054906101000a900460ff165b611c96576040517f08c379a0000000000000000000000000000000000000000000000000000000008152600401611c8d90612d10565b60405180910390fd5b505050565b505050565b6000611cc18473ffffffffffffffffffffffffffffffffffffffff16612120565b15611e2a578373ffffffffffffffffffffffffffffffffffffffff1663150b7a02611cea611253565b8786866040518563ffffffff1660e01b8152600401611d0c9493929190612b67565b602060405180830381600087803b158015611d2657600080fd5b505af1925050508015611d5757506040513d601f19601f82011682018060405250810190611d549190612729565b60015b611dda573d8060008114611d87576040519150601f19603f3d011682016040523d82523d6000602084013e611d8c565b606091505b50600081511415611dd2576040517f08c379a0000000000000000000000000000000000000000000000000000000008152600401611dc990612c10565b60405180910390fd5b805181602001fd5b63150b7a0260e01b7bffffffffffffffffffffffffffffffffffffffffffffffffffffffff1916817bffffffffffffffffffffffffffffffffffffffffffffffffffffffff191614915050611e2f565b600190505b949350505050565b60606040518060400160405280600781526020017f697066733a2f2f00000000000000000000000000000000000000000000000000815250905090565b6060611e7f82611208565b6000611e89611e37565b90506000815111611ea95760405180602001604052806000815250611ed4565b80611eb384612143565b604051602001611ec4929190612b28565b6040516020818303038152906040525b915050919050565b600073ffffffffffffffffffffffffffffffffffffffff168273ffffffffffffffffffffffffffffffffffffffff161415611f4c576040517f08c379a0000000000000000000000000000000000000000000000000000000008152600401611f4390612d50565b60405180910390fd5b611f5581611a8b565b15611f95576040517f08c379a0000000000000000000000000000000000000000000000000000000008152600401611f8c90612c70565b60405180910390fd5b611fa160008383611bd9565b6001600360008473ffffffffffffffffffffffffffffffffffffffff1673ffffffffffffffffffffffffffffffffffffffff1681526020019081526020016000206000828254611ff19190612f15565b92505081905550816002600083815260200190815260200160002060006101000a81548173ffffffffffffffffffffffffffffffffffffffff021916908373ffffffffffffffffffffffffffffffffffffffff160217905550808273ffffffffffffffffffffffffffffffffffffffff16600073ffffffffffffffffffffffffffffffffffffffff167fddf252ad1be2c89b69c2b068fc378daa952ba7f163c4a11628f55a4df523b3ef60405160405180910390a46120b260008383611c9b565b5050565b60007f01ffc9a7000000000000000000000000000000000000000000000000000000007bffffffffffffffffffffffffffffffffffffffffffffffffffffffff1916827bffffffffffffffffffffffffffffffffffffffffffffffffffffffff1916149050919050565b6000808273ffffffffffffffffffffffffffffffffffffffff163b119050919050565b6060600082141561218b576040518060400160405280600181526020017f300000000000000000000000000000000000000000000000000000000000000081525090506122eb565b600082905060005b600082146121bd5780806121a6906130e9565b915050600a826121b69190612f6b565b9150612193565b60008167ffffffffffffffff8111156121ff577f4e487b7100000000000000000000000000000000000000000000000000000000600052604160045260246000fd5b6040519080825280601f01601f1916602001820160405280156122315781602001600182028036833780820191505090505b5090505b600085146122e45760018261224a9190612f9c565b9150600a856122599190613132565b60306122659190612f15565b60f81b8183815181106122a1577f4e487b7100000000000000000000000000000000000000000000000000000000600052603260045260246000fd5b60200101907effffffffffffffffffffffffffffffffffffffffffffffffffffffffffffff1916908160001a905350600a856122dd9190612f6b565b9450612235565b8093505050505b919050565b8280546122fc90613086565b90600052602060002090601f01602090048101928261231e5760008555612365565b82601f1061233757805160ff1916838001178555612365565b82800160010185558215612365579182015b82811115612364578251825591602001919060010190612349565b5b5090506123729190612376565b5090565b5b8082111561238f576000816000905550600101612377565b5090565b60006123a66123a184612e70565b612e4b565b9050828152602081018484840111156123be57600080fd5b6123c9848285613044565b509392505050565b60006123e46123df84612ea1565b612e4b565b9050828152602081018484840111156123fc57600080fd5b612407848285613044565b509392505050565b60008135905061241e816136da565b92915050565b600081519050612433816136da565b92915050565b600081359050612448816136f1565b92915050565b60008135905061245d81613708565b92915050565b60008151905061247281613708565b92915050565b600082601f83011261248957600080fd5b8135612499848260208601612393565b91505092915050565b600082601f8301126124b357600080fd5b81356124c38482602086016123d1565b91505092915050565b6000813590506124db8161371f565b92915050565b6000602082840312156124f357600080fd5b60006125018482850161240f565b91505092915050565b60006020828403121561251c57600080fd5b600061252a84828501612424565b91505092915050565b6000806040838503121561254657600080fd5b60006125548582860161240f565b92505060206125658582860161240f565b9150509250929050565b60008060006060848603121561258457600080fd5b60006125928682870161240f565b93505060206125a38682870161240f565b92505060406125b4868287016124cc565b9150509250925092565b600080600080608085870312156125d457600080fd5b60006125e28782880161240f565b94505060206125f38782880161240f565b9350506040612604878288016124cc565b925050606085013567ffffffffffffffff81111561262157600080fd5b61262d87828801612478565b91505092959194509250565b6000806040838503121561264c57600080fd5b600061265a8582860161240f565b925050602061266b85828601612439565b9150509250929050565b6000806040838503121561268857600080fd5b60006126968582860161240f565b92505060206126a7858286016124cc565b9150509250929050565b6000806000606084860312156126c657600080fd5b60006126d48682870161240f565b93505060206126e5868287016124cc565b92505060406126f6868287016124cc565b9150509250925092565b60006020828403121561271257600080fd5b60006127208482850161244e565b91505092915050565b60006020828403121561273b57600080fd5b600061274984828501612463565b91505092915050565b60008060006060848603121561276757600080fd5b600084013567ffffffffffffffff81111561278157600080fd5b61278d868287016124a2565b935050602061279e8682870161240f565b92505060406127af868287016124cc565b9150509250925092565b6000602082840312156127cb57600080fd5b60006127d9848285016124cc565b91505092915050565b6127eb81612fd0565b82525050565b6127fa81612fe2565b82525050565b600061280b82612ed2565b6128158185612ee8565b9350612825818560208601613053565b61282e8161321f565b840191505092915050565b600061284482612edd565b61284e8185612ef9565b935061285e818560208601613053565b6128678161321f565b840191505092915050565b600061287d82612edd565b6128878185612f0a565b9350612897818560208601613053565b80840191505092915050565b60006128b0602b83612ef9565b91506128bb82613230565b604082019050919050565b60006128d3603283612ef9565b91506128de8261327f565b604082019050919050565b60006128f6602683612ef9565b9150612901826132ce565b604082019050919050565b6000612919602583612ef9565b91506129248261331d565b604082019050919050565b600061293c601c83612ef9565b91506129478261336c565b602082019050919050565b600061295f602483612ef9565b915061296a82613395565b604082019050919050565b6000612982601983612ef9565b915061298d826133e4565b602082019050919050565b60006129a5602983612ef9565b91506129b08261340d565b604082019050919050565b60006129c8602e83612ef9565b91506129d38261345c565b604082019050919050565b60006129eb602b83612ef9565b91506129f6826134ab565b604082019050919050565b6000612a0e603e83612ef9565b9150612a19826134fa565b604082019050919050565b6000612a31602083612ef9565b9150612a3c82613549565b602082019050919050565b6000612a54602083612ef9565b9150612a5f82613572565b602082019050919050565b6000612a77600d83612ef9565b9150612a828261359b565b602082019050919050565b6000612a9a601883612ef9565b9150612aa5826135c4565b602082019050919050565b6000612abd602183612ef9565b9150612ac8826135ed565b604082019050919050565b6000612ae0602c83612ef9565b9150612aeb8261363c565b604082019050919050565b6000612b03602e83612ef9565b9150612b0e8261368b565b604082019050919050565b612b228161303a565b82525050565b6000612b348285612872565b9150612b408284612872565b91508190509392505050565b6000602082019050612b6160008301846127e2565b92915050565b6000608082019050612b7c60008301876127e2565b612b8960208301866127e2565b612b966040830185612b19565b8181036060830152612ba88184612800565b905095945050505050565b6000602082019050612bc860008301846127f1565b92915050565b60006020820190508181036000830152612be88184612839565b905092915050565b60006020820190508181036000830152612c09816128a3565b9050919050565b60006020820190508181036000830152612c29816128c6565b9050919050565b60006020820190508181036000830152612c49816128e9565b9050919050565b60006020820190508181036000830152612c698161290c565b9050919050565b60006020820190508181036000830152612c898161292f565b9050919050565b60006020820190508181036000830152612ca981612952565b9050919050565b60006020820190508181036000830152612cc981612975565b9050919050565b60006020820190508181036000830152612ce981612998565b9050919050565b60006020820190508181036000830152612d09816129bb565b9050919050565b60006020820190508181036000830152612d29816129de565b9050919050565b60006020820190508181036000830152612d4981612a01565b9050919050565b60006020820190508181036000830152612d6981612a24565b9050919050565b60006020820190508181036000830152612d8981612a47565b9050919050565b60006020820190508181036000830152612da981612a6a565b9050919050565b60006020820190508181036000830152612dc981612a8d565b9050919050565b60006020820190508181036000830152612de981612ab0565b9050919050565b60006020820190508181036000830152612e0981612ad3565b9050919050565b60006020820190508181036000830152612e2981612af6565b9050919050565b6000602082019050612e456000830184612b19565b92915050565b6000612e55612e66565b9050612e6182826130b8565b919050565b6000604051905090565b600067ffffffffffffffff821115612e8b57612e8a6131f0565b5b612e948261321f565b9050602081019050919050565b600067ffffffffffffffff821115612ebc57612ebb6131f0565b5b612ec58261321f565b9050602081019050919050565b600081519050919050565b600081519050919050565b600082825260208201905092915050565b600082825260208201905092915050565b600081905092915050565b6000612f208261303a565b9150612f2b8361303a565b9250827fffffffffffffffffffffffffffffffffffffffffffffffffffffffffffffffff03821115612f6057612f5f613163565b5b828201905092915050565b6000612f768261303a565b9150612f818361303a565b925082612f9157612f90613192565b5b828204905092915050565b6000612fa78261303a565b9150612fb28361303a565b925082821015612fc557612fc4613163565b5b828203905092915050565b6000612fdb8261301a565b9050919050565b60008115159050919050565b60007fffffffff0000000000000000000000000000000000000000000000000000000082169050919050565b600073ffffffffffffffffffffffffffffffffffffffff82169050919050565b6000819050919050565b82818337600083830152505050565b60005b83811015613071578082015181840152602081019050613056565b83811115613080576000848401525b50505050565b6000600282049050600182168061309e57607f821691505b602082108114156130b2576130b16131c1565b5b50919050565b6130c18261321f565b810181811067ffffffffffffffff821117156130e0576130df6131f0565b5b80604052505050565b60006130f48261303a565b91507fffffffffffffffffffffffffffffffffffffffffffffffffffffffffffffffff82141561312757613126613163565b5b600182019050919050565b600061313d8261303a565b91506131488361303a565b92508261315857613157613192565b5b828206905092915050565b7f4e487b7100000000000000000000000000000000000000000000000000000000600052601160045260246000fd5b7f4e487b7100000000000000000000000000000000000000000000000000000000600052601260045260246000fd5b7f4e487b7100000000000000000000000000000000000000000000000000000000600052602260045260246000fd5b7f4e487b7100000000000000000000000000000000000000000000000000000000600052604160045260246000fd5b6000601f19601f8301169050919050565b7f455243373231456e756d657261626c653a206f776e657220696e646578206f7560008201527f74206f6620626f756e6473000000000000000000000000000000000000000000602082015250565b7f4552433732313a207472616e7366657220746f206e6f6e20455243373231526560008201527f63656976657220696d706c656d656e7465720000000000000000000000000000602082015250565b7f4f776e61626c653a206e6577206f776e657220697320746865207a65726f206160008201527f6464726573730000000000000000000000000000000000000000000000000000602082015250565b7f4552433732313a207472616e736665722066726f6d20696e636f72726563742060008201527f6f776e6572000000000000000000000000000000000000000000000000000000602082015250565b7f4552433732313a20746f6b656e20616c7265616479206d696e74656400000000600082015250565b7f4552433732313a207472616e7366657220746f20746865207a65726f2061646460008201527f7265737300000000000000000000000000000000000000000000000000000000602082015250565b7f4552433732313a20617070726f766520746f2063616c6c657200000000000000600082015250565b7f4552433732313a2061646472657373207a65726f206973206e6f74206120766160008201527f6c6964206f776e65720000000000000000000000000000000000000000000000602082015250565b7f45524337323155524953746f726167653a2055524920736574206f66206e6f6e60008201527f6578697374656e7420746f6b656e000000000000000000000000000000000000602082015250565b7f596f752063616e2774207472616e736665722c2069742773206120536f756c6260008201527f6f756e6420746f6b656e2e000000000000000000000000000000000000000000602082015250565b7f4552433732313a20617070726f76652063616c6c6572206973206e6f7420746f60008201527f6b656e206f776e6572206e6f7220617070726f76656420666f7220616c6c0000602082015250565b7f4552433732313a206d696e7420746f20746865207a65726f2061646472657373600082015250565b7f4f776e61626c653a2063616c6c6572206973206e6f7420746865206f776e6572600082015250565b7f6e6f74204e4654206f776e657200000000000000000000000000000000000000600082015250565b7f4552433732313a20696e76616c696420746f6b656e2049440000000000000000600082015250565b7f4552433732313a20617070726f76616c20746f2063757272656e74206f776e6560008201527f7200000000000000000000000000000000000000000000000000000000000000602082015250565b7f455243373231456e756d657261626c653a20676c6f62616c20696e646578206f60008201527f7574206f6620626f756e64730000000000000000000000000000000000000000602082015250565b7f4552433732313a2063616c6c6572206973206e6f7420746f6b656e206f776e6560008201527f72206e6f7220617070726f766564000000000000000000000000000000000000602082015250565b6136e381612fd0565b81146136ee57600080fd5b50565b6136fa81612fe2565b811461370557600080fd5b50565b61371181612fee565b811461371c57600080fd5b50565b6137288161303a565b811461373357600080fd5b5056fea26469706673582212201f6e9857faf5bbcaf429eba2375503d9f087c34b56e2e570d9791384372e2fef64736f6c63430008040033",
  "linkReferences": {},
  "deployedLinkReferences": {}
}